:100000000C942A000C9434000C9434000C943400AA
:100010000C9434000C9434000C9434000C94340090
:100020000C9434000C9434000C9434000C94340080
:100030000C9434000C9434000C9434000C94340070
:100040000C9434000C9434000C9434000C94340060
:100050000C94340011241FBECFE5D8E0DEBFCDBF25
:100060000E9436000C9481000C9400000AE515EA09
:10007000202FA801209300023091000260EF6F70E2
:10008000606C7FEF8CE39CE0890F891F891B890BD3
:100090008923892B892793959A9591959095A1E02D
:1000A000B1E0AB17AB07AA23A130AB1309F00000F6
:1000B00009F4000003D00E945F0002C00895189563
:1000C00000E004B9239A239810FB20F920FD0000DA
:1000D00021FF00003F934F9153B155B9E5EAE695F2
:1000E000E795EE1FE595E2957894F89488949894B6
:1000F000A894B894C894E894D89400008895A895DA
:06010000FFCFF894FFCFD1
:00000001FF
