:100000000C9446000C9450000C9450000C9450003A
:100010000C9450000C9450000C9450000C94500020
:100020000C9450000C9450000C9450000C94500010
:100030000C9450000C9450000C9450000C94500000
:100040000C9450000C9450000C9450000C945000F0
:100050000C9450000C9450000C9450000C945000E0
:100060000C9450000C9450000C9450000C945000D0
:100070000C9450000C9450000C9450000C945000C0
:100080000C9450000C9450000C94500011241FBE8E
:10009000CFEFD0E4DEBFCDBF0E9452000C94A5008C
:1000A0000C9400000AE515EA202FA8012093000215
:1000B0003091000260EF6F70606C7FEF8CE39CE02A
:1000C000890F891F891B890B8923892B8927939580
:1000D0009A9591959095A1E0B1E0AB17AB07AA2353
:1000E000A130AB1309F0000009F4000003D00E9416
:1000F0007B0002C00895189500E004B9239A239864
:1001000010FB20F920FD000021FF000000003F93BC
:100110004F9153B155B9E5EAE695E795EE1FE595A0
:10012000E2950894189428943894489458946894C4
:10013000789488949894A894B894C894D894E8949F
:0E014000F89400008895A895FFCFF894FFCFA3
:00000001FF
